{
  "contractName": "CourseMarketPlace",
  "abi": [
    {
      "inputs": [],
      "stateMutability": "nonpayable",
      "type": "constructor"
    },
    {
      "inputs": [],
      "name": "CourseHasOwner",
      "type": "error"
    },
    {
      "inputs": [],
      "name": "CourseIsNotCreated",
      "type": "error"
    },
    {
      "inputs": [],
      "name": "InvalidState",
      "type": "error"
    },
    {
      "inputs": [],
      "name": "OnlyOwner",
      "type": "error"
    },
    {
      "inputs": [],
      "name": "SenderIsNotCourseOwner",
      "type": "error"
    },
    {
      "inputs": [
        {
          "internalType": "bytes16",
          "name": "courseId",
          "type": "bytes16"
        },
        {
          "internalType": "bytes32",
          "name": "proof",
          "type": "bytes32"
        }
      ],
      "name": "purchaseCourse",
      "outputs": [
        {
          "internalType": "bytes32",
          "name": "",
          "type": "bytes32"
        }
      ],
      "stateMutability": "payable",
      "type": "function",
      "payable": true
    },
    {
      "inputs": [
        {
          "internalType": "bytes32",
          "name": "courseHash",
          "type": "bytes32"
        }
      ],
      "name": "repurchaseCourse",
      "outputs": [],
      "stateMutability": "payable",
      "type": "function",
      "payable": true
    },
    {
      "inputs": [
        {
          "internalType": "bytes32",
          "name": "courseHash",
          "type": "bytes32"
        }
      ],
      "name": "activateCourse",
      "outputs": [],
      "stateMutability": "nonpayable",
      "type": "function"
    },
    {
      "inputs": [
        {
          "internalType": "bytes32",
          "name": "courseHash",
          "type": "bytes32"
        }
      ],
      "name": "deactivateCourse",
      "outputs": [],
      "stateMutability": "nonpayable",
      "type": "function"
    },
    {
      "inputs": [
        {
          "internalType": "address",
          "name": "newOwner",
          "type": "address"
        }
      ],
      "name": "transferOwnership",
      "outputs": [],
      "stateMutability": "nonpayable",
      "type": "function"
    },
    {
      "inputs": [],
      "name": "getCourseCount",
      "outputs": [
        {
          "internalType": "uint256",
          "name": "",
          "type": "uint256"
        }
      ],
      "stateMutability": "view",
      "type": "function",
      "constant": true
    },
    {
      "inputs": [
        {
          "internalType": "uint256",
          "name": "index",
          "type": "uint256"
        }
      ],
      "name": "getCourseHashAtIndex",
      "outputs": [
        {
          "internalType": "bytes32",
          "name": "",
          "type": "bytes32"
        }
      ],
      "stateMutability": "view",
      "type": "function",
      "constant": true
    },
    {
      "inputs": [
        {
          "internalType": "bytes32",
          "name": "couseHash",
          "type": "bytes32"
        }
      ],
      "name": "getCourseByHash",
      "outputs": [
        {
          "components": [
            {
              "internalType": "uint256",
              "name": "id",
              "type": "uint256"
            },
            {
              "internalType": "uint256",
              "name": "price",
              "type": "uint256"
            },
            {
              "internalType": "bytes32",
              "name": "proof",
              "type": "bytes32"
            },
            {
              "internalType": "address",
              "name": "owner",
              "type": "address"
            },
            {
              "internalType": "enum CourseMarketPlace.State",
              "name": "state",
              "type": "uint8"
            }
          ],
          "internalType": "struct CourseMarketPlace.Course",
          "name": "",
          "type": "tuple"
        }
      ],
      "stateMutability": "view",
      "type": "function",
      "constant": true
    },
    {
      "inputs": [],
      "name": "getContractOwner",
      "outputs": [
        {
          "internalType": "address",
          "name": "",
          "type": "address"
        }
      ],
      "stateMutability": "view",
      "type": "function",
      "constant": true
    }
  ],
  "bytecode": "0x608060405234801561001057600080fd5b506100203361002560201b60201c565b610069565b80600360006101000a81548173ffffffffffffffffffffffffffffffffffffffff021916908373ffffffffffffffffffffffffffffffffffffffff16021790555050565b61115b806100786000396000f3fe6080604052600436106100865760003560e01c80636d11290b116100595780636d11290b14610138578063935d7e6d1461017557806396cfda061461019e578063d76821cb146101c9578063f2fde38b146101f957610086565b8063392625721461008b578063442890d5146100b45780636136e1eb146100df57806362e4e6ac146100fb575b600080fd5b34801561009757600080fd5b506100b260048036038101906100ad9190610bfd565b610222565b005b3480156100c057600080fd5b506100c9610383565b6040516100d69190610c6b565b60405180910390f35b6100f960048036038101906100f49190610bfd565b6103ad565b005b34801561010757600080fd5b50610122600480360381019061011d9190610bfd565b6104e9565b60405161012f9190610d9c565b60405180910390f35b34801561014457600080fd5b5061015f600480360381019061015a9190610de3565b6105c4565b60405161016c9190610e1f565b60405180910390f35b34801561018157600080fd5b5061019c60048036038101906101979190610bfd565b6105e1565b005b3480156101aa57600080fd5b506101b3610821565b6040516101c09190610e49565b60405180910390f35b6101e360048036038101906101de9190610ebc565b61082b565b6040516101f09190610e1f565b60405180910390f35b34801561020557600080fd5b50610220600480360381019061021b9190610f28565b6109d1565b005b61022a610383565b73ffffffffffffffffffffffffffffffffffffffff163373ffffffffffffffffffffffffffffffffffffffff161461028e576040517f5fc483c500000000000000000000000000000000000000000000000000000000815260040160405180910390fd5b61029781610a49565b6102cd576040517f4db0c48300000000000000000000000000000000000000000000000000000000815260040160405180910390fd5b60008060008381526020019081526020016000209050600060028111156102f7576102f6610cbd565b5b8160030160149054906101000a900460ff16600281111561031b5761031a610cbd565b5b14610352576040517fbaf3f0f700000000000000000000000000000000000000000000000000000000815260040160405180910390fd5b60018160030160146101000a81548160ff0219169083600281111561037a57610379610cbd565b5b02179055505050565b6000600360009054906101000a900473ffffffffffffffffffffffffffffffffffffffff16905090565b6103b681610a49565b6103ec576040517f4db0c48300000000000000000000000000000000000000000000000000000000815260040160405180910390fd5b6103f581610ab7565b61042b576040517fcce31cc400000000000000000000000000000000000000000000000000000000815260040160405180910390fd5b6000806000838152602001908152602001600020905060028081111561045457610453610cbd565b5b8160030160149054906101000a900460ff16600281111561047857610477610cbd565b5b146104af576040517fbaf3f0f700000000000000000000000000000000000000000000000000000000815260040160405180910390fd5b60008160030160146101000a81548160ff021916908360028111156104d7576104d6610cbd565b5b02179055503481600101819055505050565b6104f1610b68565b6000808381526020019081526020016000206040518060a00160405290816000820154815260200160018201548152602001600282015481526020016003820160009054906101000a900473ffffffffffffffffffffffffffffffffffffffff1673ffffffffffffffffffffffffffffffffffffffff1673ffffffffffffffffffffffffffffffffffffffff1681526020016003820160149054906101000a900460ff1660028111156105a7576105a6610cbd565b5b60028111156105b9576105b8610cbd565b5b815250509050919050565b600060016000838152602001908152602001600020549050919050565b6105e9610383565b73ffffffffffffffffffffffffffffffffffffffff163373ffffffffffffffffffffffffffffffffffffffff161461064d576040517f5fc483c500000000000000000000000000000000000000000000000000000000815260040160405180910390fd5b61065681610a49565b61068c576040517f4db0c48300000000000000000000000000000000000000000000000000000000815260040160405180910390fd5b60008060008381526020019081526020016000209050600060028111156106b6576106b5610cbd565b5b8160030160149054906101000a900460ff1660028111156106da576106d9610cbd565b5b14610711576040517fbaf3f0f700000000000000000000000000000000000000000000000000000000815260040160405180910390fd5b60008160030160009054906101000a900473ffffffffffffffffffffffffffffffffffffffff1673ffffffffffffffffffffffffffffffffffffffff16826001015460405161075f90610f86565b60006040518083038185875af1925050503d806000811461079c576040519150601f19603f3d011682016040523d82523d6000602084013e6107a1565b606091505b50509050806107e5576040517f08c379a00000000000000000000000000000000000000000000000000000000081526004016107dc90610ff8565b60405180910390fd5b60028260030160146101000a81548160ff0219169083600281111561080d5761080c610cbd565b5b021790555060008260010181905550505050565b6000600254905090565b6000808333604051602001610841929190611081565b60405160208183030381529060405280519060200120905061086281610ab7565b15610899576040517fb0fc2d9700000000000000000000000000000000000000000000000000000000815260040160405180910390fd5b6000600260008154809291906108ae906110dc565b9190505590508160016000838152602001908152602001600020819055506040518060a001604052808281526020013481526020018581526020013373ffffffffffffffffffffffffffffffffffffffff1681526020016000600281111561091957610918610cbd565b5b81525060008084815260200190815260200160002060008201518160000155602082015181600101556040820151816002015560608201518160030160006101000a81548173ffffffffffffffffffffffffffffffffffffffff021916908373ffffffffffffffffffffffffffffffffffffffff16021790555060808201518160030160146101000a81548160ff021916908360028111156109be576109bd610cbd565b5b0217905550905050819250505092915050565b6109d9610383565b73ffffffffffffffffffffffffffffffffffffffff163373ffffffffffffffffffffffffffffffffffffffff1614610a3d576040517f5fc483c500000000000000000000000000000000000000000000000000000000815260040160405180910390fd5b610a4681610b24565b50565b60008073ffffffffffffffffffffffffffffffffffffffff1660008084815260200190815260200160002060030160009054906101000a900473ffffffffffffffffffffffffffffffffffffffff1673ffffffffffffffffffffffffffffffffffffffff1614159050919050565b60003373ffffffffffffffffffffffffffffffffffffffff1660008084815260200190815260200160002060030160009054906101000a900473ffffffffffffffffffffffffffffffffffffffff1673ffffffffffffffffffffffffffffffffffffffff16149050919050565b80600360006101000a81548173ffffffffffffffffffffffffffffffffffffffff021916908373ffffffffffffffffffffffffffffffffffffffff16021790555050565b6040518060a00160405280600081526020016000815260200160008019168152602001600073ffffffffffffffffffffffffffffffffffffffff16815260200160006002811115610bbc57610bbb610cbd565b5b81525090565b600080fd5b6000819050919050565b610bda81610bc7565b8114610be557600080fd5b50565b600081359050610bf781610bd1565b92915050565b600060208284031215610c1357610c12610bc2565b5b6000610c2184828501610be8565b91505092915050565b600073ffffffffffffffffffffffffffffffffffffffff82169050919050565b6000610c5582610c2a565b9050919050565b610c6581610c4a565b82525050565b6000602082019050610c806000830184610c5c565b92915050565b6000819050919050565b610c9981610c86565b82525050565b610ca881610bc7565b82525050565b610cb781610c4a565b82525050565b7f4e487b7100000000000000000000000000000000000000000000000000000000600052602160045260246000fd5b60038110610cfd57610cfc610cbd565b5b50565b6000819050610d0e82610cec565b919050565b6000610d1e82610d00565b9050919050565b610d2e81610d13565b82525050565b60a082016000820151610d4a6000850182610c90565b506020820151610d5d6020850182610c90565b506040820151610d706040850182610c9f565b506060820151610d836060850182610cae565b506080820151610d966080850182610d25565b50505050565b600060a082019050610db16000830184610d34565b92915050565b610dc081610c86565b8114610dcb57600080fd5b50565b600081359050610ddd81610db7565b92915050565b600060208284031215610df957610df8610bc2565b5b6000610e0784828501610dce565b91505092915050565b610e1981610bc7565b82525050565b6000602082019050610e346000830184610e10565b92915050565b610e4381610c86565b82525050565b6000602082019050610e5e6000830184610e3a565b92915050565b60007fffffffffffffffffffffffffffffffff0000000000000000000000000000000082169050919050565b610e9981610e64565b8114610ea457600080fd5b50565b600081359050610eb681610e90565b92915050565b60008060408385031215610ed357610ed2610bc2565b5b6000610ee185828601610ea7565b9250506020610ef285828601610be8565b9150509250929050565b610f0581610c4a565b8114610f1057600080fd5b50565b600081359050610f2281610efc565b92915050565b600060208284031215610f3e57610f3d610bc2565b5b6000610f4c84828501610f13565b91505092915050565b600081905092915050565b50565b6000610f70600083610f55565b9150610f7b82610f60565b600082019050919050565b6000610f9182610f63565b9150819050919050565b600082825260208201905092915050565b7f5472616e73666572206661696c65642100000000000000000000000000000000600082015250565b6000610fe2601083610f9b565b9150610fed82610fac565b602082019050919050565b6000602082019050818103600083015261101181610fd5565b9050919050565b6000819050919050565b61103361102e82610e64565b611018565b82525050565b60008160601b9050919050565b600061105182611039565b9050919050565b600061106382611046565b9050919050565b61107b61107682610c4a565b611058565b82525050565b600061108d8285611022565b60108201915061109d828461106a565b6014820191508190509392505050565b7f4e487b7100000000000000000000000000000000000000000000000000000000600052601160045260246000fd5b60006110e782610c86565b91507fffffffffffffffffffffffffffffffffffffffffffffffffffffffffffffffff82141561111a576111196110ad565b5b60018201905091905056fea264697066735822122081be8dc3aa66eaeeb096061e0472ee624687d82fe793ab5865508844b6b596ee64736f6c634300080c0033",
  "immutableReferences": {},
  "source": "// SPDX-License-Identifier: MIT\npragma solidity >=0.4.22 <0.9.0;\n\ncontract CourseMarketPlace {\n    enum State {\n        PURCHASED,\n        ACTIVATED,\n        DEACTIVATED\n    }\n    struct Course {\n        uint id; // 32 Bytes\n        uint price; // 32 Bytes\n        bytes32 proof; // 32 Bytes\n        address owner; // 20 Bytes\n        State state; // 1 Byte\n    }\n\n// mapping of courseHast to Course data\n    mapping(bytes32 => Course) private ownedCourses;\n\n// mapping of courseId to course hash \n    mapping(uint => bytes32) private ownedCourseHash;\n\n// numer of all courses + id of the course\n    uint private totalOwnedCourses;\n\n// owner the contract (as admin)\n    address payable private owner;\n\n    constructor(){\n        setContractOwner(msg.sender);\n    }\n\n\n    modifier onlyOwner()\n    {\n        if(msg.sender != getContractOwner()){\n            revert OnlyOwner();\n        }\n        _;\n    }\n\n// errors\n    /// This course has already a Owner!\n    error CourseHasOwner();\n\n    /// Sender is not a course owner\n    error SenderIsNotCourseOwner();\n\n    /// Only owner has access!\n    error OnlyOwner();\n\n    // Course has invalid State!\n    error InvalidState();\n\n    // Course is not created!!\n    error CourseIsNotCreated();\n\n//  course id - 10 --> this is the course ID\n// 0x00000000000000000000000000003130 -> this is the course ID in hex\n// 0x0000000000000000000000000000313000000000000000000000000000003130 --> fake proof\n// 0x5B38Da6a701c568545dCfcB03FcB875f56beddC4 --> this is an user account (for this example is from remix)\n// 000000000000000000000000000031305B38Da6a701c568545dCfcB03FcB875f56beddC4 -> [courseId_HEX][USER_ACCOUNT]\n// keccak256 c4eaa3558504e2baa2669001b43f359b8418b44a4477ff417b4b007d7cc86e37 -> [courseId_HEX][USER_ACCOUNT] hashed in keccak256\n       //--> c4eaa3558504e2baa2669001b43f359b8418b44a4477ff417b4b007d7cc86e37  --> The contract generate the same hash\n    function purchaseCourse(bytes16 courseId, bytes32 proof)\n    external payable returns(bytes32)\n    {\n        bytes32 courseHash = keccak256(abi.encodePacked(courseId, msg.sender));\n        if(hasCourseOwnership(courseHash)){\n            revert CourseHasOwner();\n        }\n        uint id = totalOwnedCourses++;\n        ownedCourseHash[id] = courseHash;\n        ownedCourses[courseHash] = Course({\n            id: id,\n            owner: msg.sender,\n            price: msg.value,\n            proof: proof,\n            state: State.PURCHASED\n        });\n        return courseHash;\n    }\n\n    function repurchaseCourse(bytes32 courseHash)\n    external\n    payable\n    {\n        if (!isCourseCreated(courseHash)) {\n           revert CourseIsNotCreated();\n        }\n        if(!hasCourseOwnership(courseHash)){\n            revert SenderIsNotCourseOwner();\n        }\n\n        Course storage course = ownedCourses[courseHash];\n\n        if(course.state != State.DEACTIVATED){\n            revert InvalidState();\n        }\n        course.state = State.PURCHASED;\n        course.price = msg.value;\n    }\n\n    function activateCourse(bytes32 courseHash)\n    external\n    onlyOwner\n  {\n    if (!isCourseCreated(courseHash)) {\n      revert CourseIsNotCreated();\n    }\n\n    Course storage course = ownedCourses[courseHash];\n\n    if (course.state != State.PURCHASED) {\n      revert InvalidState();\n    }\n\n    course.state = State.ACTIVATED;\n  }\n\n  function deactivateCourse(bytes32 courseHash)\n    external\n    onlyOwner\n  {\n    if (!isCourseCreated(courseHash)) {\n      revert CourseIsNotCreated();\n    }\n\n    Course storage course = ownedCourses[courseHash];\n\n    if (course.state != State.PURCHASED) {\n      revert InvalidState();\n    }\n\n    (bool success, ) = course.owner.call{value: course.price}(\"\");\n\n    require(success, \"Transfer failed!\");\n    course.state = State.DEACTIVATED;\n    course.price = 0;\n  }\n\n\n    function transferOwnership(address newOwner)\n     external\n     onlyOwner\n    {\n        setContractOwner(newOwner);\n    }\n\n    function getCourseCount()\n    external\n    view\n    returns (uint)\n    {\n        return totalOwnedCourses;\n    }\n\n    function getCourseHashAtIndex(uint index)\n    external\n    view\n    returns (bytes32)\n    {\n        return ownedCourseHash[index];\n    }\n    function getCourseByHash(bytes32 couseHash)\n    external\n    view\n    returns (Course memory)\n    {\n        return ownedCourses[couseHash];\n    }\n\n    function getContractOwner()\n    public\n    view\n    returns (address)\n    {\n        return owner;\n    }\n\n    function setContractOwner(address newOwner) \n     private\n    {\n        owner = payable(newOwner);\n\n    }\n\n    function isCourseCreated(bytes32 courseHash)\n    private\n    view\n    returns (bool)\n    {\n        return ownedCourses[courseHash].owner != 0x0000000000000000000000000000000000000000;\n    }\n\n\n    function hasCourseOwnership(bytes32 courseHash)\n    private\n    view\n    returns (bool)\n    {\n        return ownedCourses[courseHash].owner == msg.sender;\n    }\n\n\n\n}",
  "sourcePath": "/Users/cristianronda/Documents/CR/marketplace-eth/contracts/CourseMarketPlace.sol",
  "compiler": {
    "name": "solc",
    "version": "0.8.12+commit.f00d7308.Emscripten.clang"
  },
  "schemaVersion": "3.4.6",
  "updatedAt": "2022-07-20T16:43:54.194Z",
  "networkType": "ethereum",
  "devdoc": {
    "kind": "dev",
    "methods": {},
    "version": 1
  },
  "userdoc": {
    "errors": {
      "CourseHasOwner()": [
        {
          "notice": "This course has already a Owner!"
        }
      ],
      "OnlyOwner()": [
        {
          "notice": "Only owner has access!"
        }
      ],
      "SenderIsNotCourseOwner()": [
        {
          "notice": "Sender is not a course owner"
        }
      ]
    },
    "kind": "user",
    "methods": {},
    "version": 1
  }
}