{
  "contractName": "CourseMarketPlace",
  "abi": [
    {
      "inputs": [],
      "stateMutability": "nonpayable",
      "type": "constructor"
    },
    {
      "inputs": [],
      "name": "CourseHasOwner",
      "type": "error"
    },
    {
      "inputs": [],
      "name": "CourseIsNotCreated",
      "type": "error"
    },
    {
      "inputs": [],
      "name": "InvalidState",
      "type": "error"
    },
    {
      "inputs": [],
      "name": "OnlyOwner",
      "type": "error"
    },
    {
      "inputs": [
        {
          "internalType": "bytes16",
          "name": "courseId",
          "type": "bytes16"
        },
        {
          "internalType": "bytes32",
          "name": "proof",
          "type": "bytes32"
        }
      ],
      "name": "purchaseCourse",
      "outputs": [
        {
          "internalType": "bytes32",
          "name": "",
          "type": "bytes32"
        }
      ],
      "stateMutability": "payable",
      "type": "function"
    },
    {
      "inputs": [
        {
          "internalType": "bytes32",
          "name": "courseHash",
          "type": "bytes32"
        }
      ],
      "name": "activateCourse",
      "outputs": [],
      "stateMutability": "nonpayable",
      "type": "function"
    },
    {
      "inputs": [
        {
          "internalType": "address",
          "name": "newOwner",
          "type": "address"
        }
      ],
      "name": "transferOwnership",
      "outputs": [],
      "stateMutability": "nonpayable",
      "type": "function"
    },
    {
      "inputs": [],
      "name": "getCourseCount",
      "outputs": [
        {
          "internalType": "uint256",
          "name": "",
          "type": "uint256"
        }
      ],
      "stateMutability": "view",
      "type": "function"
    },
    {
      "inputs": [
        {
          "internalType": "uint256",
          "name": "index",
          "type": "uint256"
        }
      ],
      "name": "getCourseHashAtIndex",
      "outputs": [
        {
          "internalType": "bytes32",
          "name": "",
          "type": "bytes32"
        }
      ],
      "stateMutability": "view",
      "type": "function"
    },
    {
      "inputs": [
        {
          "internalType": "bytes32",
          "name": "couseHash",
          "type": "bytes32"
        }
      ],
      "name": "getCourseByHash",
      "outputs": [
        {
          "components": [
            {
              "internalType": "uint256",
              "name": "id",
              "type": "uint256"
            },
            {
              "internalType": "uint256",
              "name": "price",
              "type": "uint256"
            },
            {
              "internalType": "bytes32",
              "name": "proof",
              "type": "bytes32"
            },
            {
              "internalType": "address",
              "name": "owner",
              "type": "address"
            },
            {
              "internalType": "enum CourseMarketPlace.State",
              "name": "state",
              "type": "uint8"
            }
          ],
          "internalType": "struct CourseMarketPlace.Course",
          "name": "",
          "type": "tuple"
        }
      ],
      "stateMutability": "view",
      "type": "function"
    },
    {
      "inputs": [],
      "name": "getContractOwner",
      "outputs": [
        {
          "internalType": "address",
          "name": "",
          "type": "address"
        }
      ],
      "stateMutability": "view",
      "type": "function"
    }
  ],
  "bytecode": "0x608060405234801561001057600080fd5b506100203361002560201b60201c565b610069565b80600360006101000a81548173ffffffffffffffffffffffffffffffffffffffff021916908373ffffffffffffffffffffffffffffffffffffffff16021790555050565b610cc1806100786000396000f3fe6080604052600436106100705760003560e01c80636d11290b1161004e5780636d11290b1461010657806396cfda0614610143578063d76821cb1461016e578063f2fde38b1461019e57610070565b80633926257214610075578063442890d51461009e57806362e4e6ac146100c9575b600080fd5b34801561008157600080fd5b5061009c60048036038101906100979190610826565b6101c7565b005b3480156100aa57600080fd5b506100b3610328565b6040516100c09190610894565b60405180910390f35b3480156100d557600080fd5b506100f060048036038101906100eb9190610826565b610352565b6040516100fd91906109c5565b60405180910390f35b34801561011257600080fd5b5061012d60048036038101906101289190610a0c565b61042d565b60405161013a9190610a48565b60405180910390f35b34801561014f57600080fd5b5061015861044a565b6040516101659190610a72565b60405180910390f35b61018860048036038101906101839190610ae5565b610454565b6040516101959190610a48565b60405180910390f35b3480156101aa57600080fd5b506101c560048036038101906101c09190610b51565b6105fa565b005b6101cf610328565b73ffffffffffffffffffffffffffffffffffffffff163373ffffffffffffffffffffffffffffffffffffffff1614610233576040517f5fc483c500000000000000000000000000000000000000000000000000000000815260040160405180910390fd5b61023c81610672565b610272576040517f4db0c48300000000000000000000000000000000000000000000000000000000815260040160405180910390fd5b6000806000838152602001908152602001600020905060018160030160146101000a81548160ff021916908360028111156102b0576102af6108e6565b5b0217905550600060028111156102c9576102c86108e6565b5b8160030160149054906101000a900460ff1660028111156102ed576102ec6108e6565b5b14610324576040517fbaf3f0f700000000000000000000000000000000000000000000000000000000815260040160405180910390fd5b5050565b6000600360009054906101000a900473ffffffffffffffffffffffffffffffffffffffff16905090565b61035a610791565b6000808381526020019081526020016000206040518060a00160405290816000820154815260200160018201548152602001600282015481526020016003820160009054906101000a900473ffffffffffffffffffffffffffffffffffffffff1673ffffffffffffffffffffffffffffffffffffffff1673ffffffffffffffffffffffffffffffffffffffff1681526020016003820160149054906101000a900460ff1660028111156104105761040f6108e6565b5b6002811115610422576104216108e6565b5b815250509050919050565b600060016000838152602001908152602001600020549050919050565b6000600254905090565b600080833360405160200161046a929190610be7565b60405160208183030381529060405280519060200120905061048b816106e0565b156104c2576040517fb0fc2d9700000000000000000000000000000000000000000000000000000000815260040160405180910390fd5b6000600260008154809291906104d790610c42565b9190505590508160016000838152602001908152602001600020819055506040518060a001604052808281526020013481526020018581526020013373ffffffffffffffffffffffffffffffffffffffff16815260200160006002811115610542576105416108e6565b5b81525060008084815260200190815260200160002060008201518160000155602082015181600101556040820151816002015560608201518160030160006101000a81548173ffffffffffffffffffffffffffffffffffffffff021916908373ffffffffffffffffffffffffffffffffffffffff16021790555060808201518160030160146101000a81548160ff021916908360028111156105e7576105e66108e6565b5b0217905550905050819250505092915050565b610602610328565b73ffffffffffffffffffffffffffffffffffffffff163373ffffffffffffffffffffffffffffffffffffffff1614610666576040517f5fc483c500000000000000000000000000000000000000000000000000000000815260040160405180910390fd5b61066f8161074d565b50565b60008073ffffffffffffffffffffffffffffffffffffffff1660008084815260200190815260200160002060030160009054906101000a900473ffffffffffffffffffffffffffffffffffffffff1673ffffffffffffffffffffffffffffffffffffffff1614159050919050565b60003373ffffffffffffffffffffffffffffffffffffffff1660008084815260200190815260200160002060030160009054906101000a900473ffffffffffffffffffffffffffffffffffffffff1673ffffffffffffffffffffffffffffffffffffffff16149050919050565b80600360006101000a81548173ffffffffffffffffffffffffffffffffffffffff021916908373ffffffffffffffffffffffffffffffffffffffff16021790555050565b6040518060a00160405280600081526020016000815260200160008019168152602001600073ffffffffffffffffffffffffffffffffffffffff168152602001600060028111156107e5576107e46108e6565b5b81525090565b600080fd5b6000819050919050565b610803816107f0565b811461080e57600080fd5b50565b600081359050610820816107fa565b92915050565b60006020828403121561083c5761083b6107eb565b5b600061084a84828501610811565b91505092915050565b600073ffffffffffffffffffffffffffffffffffffffff82169050919050565b600061087e82610853565b9050919050565b61088e81610873565b82525050565b60006020820190506108a96000830184610885565b92915050565b6000819050919050565b6108c2816108af565b82525050565b6108d1816107f0565b82525050565b6108e081610873565b82525050565b7f4e487b7100000000000000000000000000000000000000000000000000000000600052602160045260246000fd5b60038110610926576109256108e6565b5b50565b600081905061093782610915565b919050565b600061094782610929565b9050919050565b6109578161093c565b82525050565b60a08201600082015161097360008501826108b9565b50602082015161098660208501826108b9565b50604082015161099960408501826108c8565b5060608201516109ac60608501826108d7565b5060808201516109bf608085018261094e565b50505050565b600060a0820190506109da600083018461095d565b92915050565b6109e9816108af565b81146109f457600080fd5b50565b600081359050610a06816109e0565b92915050565b600060208284031215610a2257610a216107eb565b5b6000610a30848285016109f7565b91505092915050565b610a42816107f0565b82525050565b6000602082019050610a5d6000830184610a39565b92915050565b610a6c816108af565b82525050565b6000602082019050610a876000830184610a63565b92915050565b60007fffffffffffffffffffffffffffffffff0000000000000000000000000000000082169050919050565b610ac281610a8d565b8114610acd57600080fd5b50565b600081359050610adf81610ab9565b92915050565b60008060408385031215610afc57610afb6107eb565b5b6000610b0a85828601610ad0565b9250506020610b1b85828601610811565b9150509250929050565b610b2e81610873565b8114610b3957600080fd5b50565b600081359050610b4b81610b25565b92915050565b600060208284031215610b6757610b666107eb565b5b6000610b7584828501610b3c565b91505092915050565b6000819050919050565b610b99610b9482610a8d565b610b7e565b82525050565b60008160601b9050919050565b6000610bb782610b9f565b9050919050565b6000610bc982610bac565b9050919050565b610be1610bdc82610873565b610bbe565b82525050565b6000610bf38285610b88565b601082019150610c038284610bd0565b6014820191508190509392505050565b7f4e487b7100000000000000000000000000000000000000000000000000000000600052601160045260246000fd5b6000610c4d826108af565b91507fffffffffffffffffffffffffffffffffffffffffffffffffffffffffffffffff821415610c8057610c7f610c13565b5b60018201905091905056fea2646970667358221220d0cfc9c9af32937634fb2c0106377c77a6972bf1260305a9e797c717eb13162564736f6c634300080c0033",
  "immutableReferences": {},
  "source": "// SPDX-License-Identifier: MIT\npragma solidity >=0.4.22 <0.9.0;\n\ncontract CourseMarketPlace {\n    enum State {\n        PURCHASED,\n        ACTIVATED,\n        DEACTIVATED\n    }\n    struct Course {\n        uint id; // 32 Bytes\n        uint price; // 32 Bytes\n        bytes32 proof; // 32 Bytes\n        address owner; // 20 Bytes\n        State state; // 1 Byte\n    }\n\n// mapping of courseHast to Course data\n    mapping(bytes32 => Course) private ownedCourses;\n\n// mapping of courseId to course hash \n    mapping(uint => bytes32) private ownedCourseHash;\n\n// numer of all courses + id of the course\n    uint private totalOwnedCourses;\n\n// owner the contract (as admin)\n    address payable private owner;\n\n    constructor(){\n        setContractOwner(msg.sender);\n    }\n\n\n    modifier onlyOwner()\n    {\n        if(msg.sender != getContractOwner()){\n            revert OnlyOwner();\n        }\n        _;\n    }\n\n// errors\n    /// This course has already a Owner!\n    error CourseHasOwner();\n\n    /// Only owner has access!\n    error OnlyOwner();\n\n    // Course has invalid State!\n    error InvalidState();\n\n    // Course is not created!!\n    error CourseIsNotCreated();\n\n//  course id - 10 --> this is the course ID\n// 0x00000000000000000000000000003130 -> this is the course ID in hex\n// 0x0000000000000000000000000000313000000000000000000000000000003130 --> fake proof\n// 0x5B38Da6a701c568545dCfcB03FcB875f56beddC4 --> this is an user account (for this example is from remix)\n// 000000000000000000000000000031305B38Da6a701c568545dCfcB03FcB875f56beddC4 -> [courseId_HEX][USER_ACCOUNT]\n// keccak256 c4eaa3558504e2baa2669001b43f359b8418b44a4477ff417b4b007d7cc86e37 -> [courseId_HEX][USER_ACCOUNT] hashed in keccak256\n       //--> c4eaa3558504e2baa2669001b43f359b8418b44a4477ff417b4b007d7cc86e37  --> The contract generate the same hash\n    function purchaseCourse(bytes16 courseId, bytes32 proof)\n    external payable returns(bytes32)\n    {\n        bytes32 courseHash = keccak256(abi.encodePacked(courseId, msg.sender));\n        if(hasCourseOwnership(courseHash)){\n            revert CourseHasOwner();\n        }\n        uint id = totalOwnedCourses++;\n        ownedCourseHash[id] = courseHash;\n        ownedCourses[courseHash] = Course({\n            id: id,\n            owner: msg.sender,\n            price: msg.value,\n            proof: proof,\n            state: State.PURCHASED\n        });\n        return courseHash;\n    }\n\n    function activateCourse(bytes32 courseHash)\n     external\n     onlyOwner\n    {\n\n        if(!isCourseCreated(courseHash)){\n            revert CourseIsNotCreated();\n        }\n\n        Course storage course = ownedCourses[courseHash];\n        course.state = State.ACTIVATED;\n\n        if(course.state !=State.PURCHASED){\n            revert InvalidState();\n        }\n\n    }\n\n    function transferOwnership(address newOwner)\n     external\n     onlyOwner\n    {\n        setContractOwner(newOwner);\n    }\n\n    function getCourseCount()\n    external\n    view\n    returns (uint)\n    {\n        return totalOwnedCourses;\n    }\n\n    function getCourseHashAtIndex(uint index)\n    external\n    view\n    returns (bytes32)\n    {\n        return ownedCourseHash[index];\n    }\n    function getCourseByHash(bytes32 couseHash)\n    external\n    view\n    returns (Course memory)\n    {\n        return ownedCourses[couseHash];\n    }\n\n    function getContractOwner()\n    public\n    view\n    returns (address)\n    {\n        return owner;\n    }\n\n    function setContractOwner(address newOwner) \n     private\n    {\n        owner = payable(newOwner);\n\n    }\n\n    function isCourseCreated(bytes32 courseHash)\n    private\n    view\n    returns (bool)\n    {\n        return ownedCourses[courseHash].owner != 0x0000000000000000000000000000000000000000;\n    }\n\n\n    function hasCourseOwnership(bytes32 courseHash)\n    private\n    view\n    returns (bool)\n    {\n        return ownedCourses[courseHash].owner == msg.sender;\n    }\n\n\n\n}",
  "sourcePath": "/Users/cristianronda/Documents/CR/marketplace-eth/contracts/CourseMarketPlace.sol",
  "compiler": {
    "name": "solc",
    "version": "0.8.12+commit.f00d7308.Emscripten.clang"
  },
  "schemaVersion": "3.4.6",
  "updatedAt": "2022-05-28T17:36:13.194Z",
  "devdoc": {
    "kind": "dev",
    "methods": {},
    "version": 1
  },
  "userdoc": {
    "errors": {
      "CourseHasOwner()": [
        {
          "notice": "This course has already a Owner!"
        }
      ],
      "OnlyOwner()": [
        {
          "notice": "Only owner has access!"
        }
      ]
    },
    "kind": "user",
    "methods": {},
    "version": 1
  }
}