{
  "contractName": "CourseMarketPlace",
  "abi": [
    {
      "inputs": [],
      "stateMutability": "nonpayable",
      "type": "constructor"
    },
    {
      "inputs": [],
      "name": "CourseHasOwner",
      "type": "error"
    },
    {
      "inputs": [],
      "name": "OnlyOwner",
      "type": "error"
    },
    {
      "inputs": [
        {
          "internalType": "bytes16",
          "name": "courseId",
          "type": "bytes16"
        },
        {
          "internalType": "bytes32",
          "name": "proof",
          "type": "bytes32"
        }
      ],
      "name": "purchaseCourse",
      "outputs": [
        {
          "internalType": "bytes32",
          "name": "",
          "type": "bytes32"
        }
      ],
      "stateMutability": "payable",
      "type": "function",
      "payable": true
    },
    {
      "inputs": [
        {
          "internalType": "address",
          "name": "newOwner",
          "type": "address"
        }
      ],
      "name": "transferOwnership",
      "outputs": [],
      "stateMutability": "nonpayable",
      "type": "function"
    },
    {
      "inputs": [],
      "name": "getCourseCount",
      "outputs": [
        {
          "internalType": "uint256",
          "name": "",
          "type": "uint256"
        }
      ],
      "stateMutability": "view",
      "type": "function",
      "constant": true
    },
    {
      "inputs": [
        {
          "internalType": "uint256",
          "name": "index",
          "type": "uint256"
        }
      ],
      "name": "getCourseHashAtIndex",
      "outputs": [
        {
          "internalType": "bytes32",
          "name": "",
          "type": "bytes32"
        }
      ],
      "stateMutability": "view",
      "type": "function",
      "constant": true
    },
    {
      "inputs": [
        {
          "internalType": "bytes32",
          "name": "couseHash",
          "type": "bytes32"
        }
      ],
      "name": "getCourseByHash",
      "outputs": [
        {
          "components": [
            {
              "internalType": "uint256",
              "name": "id",
              "type": "uint256"
            },
            {
              "internalType": "uint256",
              "name": "price",
              "type": "uint256"
            },
            {
              "internalType": "bytes32",
              "name": "proof",
              "type": "bytes32"
            },
            {
              "internalType": "address",
              "name": "owner",
              "type": "address"
            },
            {
              "internalType": "enum CourseMarketPlace.State",
              "name": "state",
              "type": "uint8"
            }
          ],
          "internalType": "struct CourseMarketPlace.Course",
          "name": "",
          "type": "tuple"
        }
      ],
      "stateMutability": "view",
      "type": "function",
      "constant": true
    },
    {
      "inputs": [],
      "name": "getContractOwner",
      "outputs": [
        {
          "internalType": "address",
          "name": "",
          "type": "address"
        }
      ],
      "stateMutability": "view",
      "type": "function",
      "constant": true
    }
  ],
  "bytecode": "0x608060405234801561001057600080fd5b506100203361002560201b60201c565b610069565b80600360006101000a81548173ffffffffffffffffffffffffffffffffffffffff021916908373ffffffffffffffffffffffffffffffffffffffff16021790555050565b610aae806100786000396000f3fe6080604052600436106100555760003560e01c8063442890d51461005a57806362e4e6ac146100855780636d11290b146100c257806396cfda06146100ff578063d76821cb1461012a578063f2fde38b1461015a575b600080fd5b34801561006657600080fd5b5061006f610183565b60405161007c9190610619565b60405180910390f35b34801561009157600080fd5b506100ac60048036038101906100a7919061066f565b6101ad565b6040516100b991906107b2565b60405180910390f35b3480156100ce57600080fd5b506100e960048036038101906100e491906107f9565b610288565b6040516100f69190610835565b60405180910390f35b34801561010b57600080fd5b506101146102a5565b604051610121919061085f565b60405180910390f35b610144600480360381019061013f91906108d2565b6102af565b6040516101519190610835565b60405180910390f35b34801561016657600080fd5b50610181600480360381019061017c919061093e565b610455565b005b6000600360009054906101000a900473ffffffffffffffffffffffffffffffffffffffff16905090565b6101b561057e565b6000808381526020019081526020016000206040518060a00160405290816000820154815260200160018201548152602001600282015481526020016003820160009054906101000a900473ffffffffffffffffffffffffffffffffffffffff1673ffffffffffffffffffffffffffffffffffffffff1673ffffffffffffffffffffffffffffffffffffffff1681526020016003820160149054906101000a900460ff16600281111561026b5761026a6106d3565b5b600281111561027d5761027c6106d3565b5b815250509050919050565b600060016000838152602001908152602001600020549050919050565b6000600254905090565b60008083336040516020016102c59291906109d4565b6040516020818303038152906040528051906020012090506102e6816104cd565b1561031d576040517fb0fc2d9700000000000000000000000000000000000000000000000000000000815260040160405180910390fd5b60006002600081548092919061033290610a2f565b9190505590508160016000838152602001908152602001600020819055506040518060a001604052808281526020013481526020018581526020013373ffffffffffffffffffffffffffffffffffffffff1681526020016000600281111561039d5761039c6106d3565b5b81525060008084815260200190815260200160002060008201518160000155602082015181600101556040820151816002015560608201518160030160006101000a81548173ffffffffffffffffffffffffffffffffffffffff021916908373ffffffffffffffffffffffffffffffffffffffff16021790555060808201518160030160146101000a81548160ff02191690836002811115610442576104416106d3565b5b0217905550905050819250505092915050565b61045d610183565b73ffffffffffffffffffffffffffffffffffffffff163373ffffffffffffffffffffffffffffffffffffffff16146104c1576040517f5fc483c500000000000000000000000000000000000000000000000000000000815260040160405180910390fd5b6104ca8161053a565b50565b60003373ffffffffffffffffffffffffffffffffffffffff1660008084815260200190815260200160002060030160009054906101000a900473ffffffffffffffffffffffffffffffffffffffff1673ffffffffffffffffffffffffffffffffffffffff16149050919050565b80600360006101000a81548173ffffffffffffffffffffffffffffffffffffffff021916908373ffffffffffffffffffffffffffffffffffffffff16021790555050565b6040518060a00160405280600081526020016000815260200160008019168152602001600073ffffffffffffffffffffffffffffffffffffffff168152602001600060028111156105d2576105d16106d3565b5b81525090565b600073ffffffffffffffffffffffffffffffffffffffff82169050919050565b6000610603826105d8565b9050919050565b610613816105f8565b82525050565b600060208201905061062e600083018461060a565b92915050565b600080fd5b6000819050919050565b61064c81610639565b811461065757600080fd5b50565b60008135905061066981610643565b92915050565b60006020828403121561068557610684610634565b5b60006106938482850161065a565b91505092915050565b6000819050919050565b6106af8161069c565b82525050565b6106be81610639565b82525050565b6106cd816105f8565b82525050565b7f4e487b7100000000000000000000000000000000000000000000000000000000600052602160045260246000fd5b60038110610713576107126106d3565b5b50565b600081905061072482610702565b919050565b600061073482610716565b9050919050565b61074481610729565b82525050565b60a08201600082015161076060008501826106a6565b50602082015161077360208501826106a6565b50604082015161078660408501826106b5565b50606082015161079960608501826106c4565b5060808201516107ac608085018261073b565b50505050565b600060a0820190506107c7600083018461074a565b92915050565b6107d68161069c565b81146107e157600080fd5b50565b6000813590506107f3816107cd565b92915050565b60006020828403121561080f5761080e610634565b5b600061081d848285016107e4565b91505092915050565b61082f81610639565b82525050565b600060208201905061084a6000830184610826565b92915050565b6108598161069c565b82525050565b60006020820190506108746000830184610850565b92915050565b60007fffffffffffffffffffffffffffffffff0000000000000000000000000000000082169050919050565b6108af8161087a565b81146108ba57600080fd5b50565b6000813590506108cc816108a6565b92915050565b600080604083850312156108e9576108e8610634565b5b60006108f7858286016108bd565b92505060206109088582860161065a565b9150509250929050565b61091b816105f8565b811461092657600080fd5b50565b60008135905061093881610912565b92915050565b60006020828403121561095457610953610634565b5b600061096284828501610929565b91505092915050565b6000819050919050565b6109866109818261087a565b61096b565b82525050565b60008160601b9050919050565b60006109a48261098c565b9050919050565b60006109b682610999565b9050919050565b6109ce6109c9826105f8565b6109ab565b82525050565b60006109e08285610975565b6010820191506109f082846109bd565b6014820191508190509392505050565b7f4e487b7100000000000000000000000000000000000000000000000000000000600052601160045260246000fd5b6000610a3a8261069c565b91507fffffffffffffffffffffffffffffffffffffffffffffffffffffffffffffffff821415610a6d57610a6c610a00565b5b60018201905091905056fea26469706673582212202b825b4120a53ea805f9e52afb4e878e0790f374240377e54bd61956fe7bbad164736f6c634300080c0033",
  "immutableReferences": {},
  "source": "// SPDX-License-Identifier: MIT\npragma solidity >=0.4.22 <0.9.0;\n\ncontract CourseMarketPlace {\n    enum State {\n        PURCHASED,\n        ACTIVATED,\n        DEACTIVATED\n    }\n    struct Course {\n        uint id; // 32 Bytes\n        uint price; // 32 Bytes\n        bytes32 proof; // 32 Bytes\n        address owner; // 20 Bytes\n        State state; // 1 Byte\n    }\n\n// mapping of courseHast to Course data\n    mapping(bytes32 => Course) private ownedCourses;\n\n// mapping of courseId to course hash \n    mapping(uint => bytes32) private ownedCourseHash;\n\n// numer of all courses + id of the course\n    uint private totalOwnedCourses;\n\n// owner the contract (as admin)\n    address payable private owner;\n\n    constructor(){\n        setContractOwner(msg.sender);\n    }\n\n\n    modifier onlyOwner()\n    {\n        if(msg.sender != getContractOwner()){\n            revert OnlyOwner();\n        }\n        _;\n    }\n\n// errors\n    /// This course has already a Owner!\n    error CourseHasOwner();\n\n    /// Only owner has access!\n    error OnlyOwner();\n\n\n//  course id - 10 --> this is the course ID\n// 0x00000000000000000000000000003130 -> this is the course ID in hex\n// 0x0000000000000000000000000000313000000000000000000000000000003130 --> fake proof\n// 0x5B38Da6a701c568545dCfcB03FcB875f56beddC4 --> this is an user account (for this example is from remix)\n// 000000000000000000000000000031305B38Da6a701c568545dCfcB03FcB875f56beddC4 -> [courseId_HEX][USER_ACCOUNT]\n// keccak256 c4eaa3558504e2baa2669001b43f359b8418b44a4477ff417b4b007d7cc86e37 -> [courseId_HEX][USER_ACCOUNT] hashed in keccak256\n       //--> c4eaa3558504e2baa2669001b43f359b8418b44a4477ff417b4b007d7cc86e37  --> The contract generate the same hash\n    function purchaseCourse(bytes16 courseId, bytes32 proof)\n    external payable returns(bytes32)\n    {\n        bytes32 courseHash = keccak256(abi.encodePacked(courseId, msg.sender));\n        if(hasCourseOwnership(courseHash)){\n            revert CourseHasOwner();\n        }\n        uint id = totalOwnedCourses++;\n        ownedCourseHash[id] = courseHash;\n        ownedCourses[courseHash] = Course({\n            id: id,\n            owner: msg.sender,\n            price: msg.value,\n            proof: proof,\n            state: State.PURCHASED\n        });\n        return courseHash;\n    }\n\n    function transferOwnership(address newOwner)\n     external\n     onlyOwner\n    {\n        setContractOwner(newOwner);\n    }\n\n    function getCourseCount()\n    external\n    view\n    returns (uint)\n    {\n        return totalOwnedCourses;\n    }\n\n    function getCourseHashAtIndex(uint index)\n    external\n    view\n    returns (bytes32)\n    {\n        return ownedCourseHash[index];\n    }\n    function getCourseByHash(bytes32 couseHash)\n    external\n    view\n    returns (Course memory)\n    {\n        return ownedCourses[couseHash];\n    }\n\n    function getContractOwner()\n    public\n    view\n    returns (address)\n    {\n        return owner;\n    }\n\n    function setContractOwner(address newOwner) \n     private\n    {\n        owner = payable(newOwner);\n\n    }\n\n    function hasCourseOwnership(bytes32 courseHash)\n    private\n    view\n    returns (bool)\n    {\n        return ownedCourses[courseHash].owner == msg.sender;\n    }\n\n\n\n}",
  "sourcePath": "/Users/cristianronda/Documents/CR/marketplace-eth/contracts/CourseMarketPlace.sol",
  "compiler": {
    "name": "solc",
    "version": "0.8.12+commit.f00d7308.Emscripten.clang"
  },
  "schemaVersion": "3.4.6",
  "updatedAt": "2022-04-28T02:10:57.664Z",
  "networkType": "ethereum",
  "devdoc": {
    "kind": "dev",
    "methods": {},
    "version": 1
  },
  "userdoc": {
    "errors": {
      "CourseHasOwner()": [
        {
          "notice": "This course has already a Owner!"
        }
      ],
      "OnlyOwner()": [
        {
          "notice": "Only owner has access!"
        }
      ]
    },
    "kind": "user",
    "methods": {},
    "version": 1
  }
}