{
  "contractName": "CourseMarketPlace",
  "abi": [
    {
      "inputs": [],
      "stateMutability": "nonpayable",
      "type": "constructor"
    },
    {
      "inputs": [],
      "name": "CourseHasOwner",
      "type": "error"
    },
    {
      "inputs": [],
      "name": "CourseIsNotCreated",
      "type": "error"
    },
    {
      "inputs": [],
      "name": "InvalidState",
      "type": "error"
    },
    {
      "inputs": [],
      "name": "OnlyOwner",
      "type": "error"
    },
    {
      "inputs": [],
      "name": "SenderIsNotCourseOwner",
      "type": "error"
    },
    {
      "inputs": [],
      "name": "isStopped",
      "outputs": [
        {
          "internalType": "bool",
          "name": "",
          "type": "bool"
        }
      ],
      "stateMutability": "view",
      "type": "function",
      "constant": true
    },
    {
      "stateMutability": "payable",
      "type": "receive",
      "payable": true
    },
    {
      "inputs": [
        {
          "internalType": "uint256",
          "name": "amount",
          "type": "uint256"
        }
      ],
      "name": "withdraw",
      "outputs": [],
      "stateMutability": "nonpayable",
      "type": "function"
    },
    {
      "inputs": [],
      "name": "emergencyWithdraw",
      "outputs": [],
      "stateMutability": "nonpayable",
      "type": "function"
    },
    {
      "inputs": [],
      "name": "selfDestruct",
      "outputs": [],
      "stateMutability": "nonpayable",
      "type": "function"
    },
    {
      "inputs": [],
      "name": "stopContract",
      "outputs": [],
      "stateMutability": "nonpayable",
      "type": "function"
    },
    {
      "inputs": [],
      "name": "resumeContract",
      "outputs": [],
      "stateMutability": "nonpayable",
      "type": "function"
    },
    {
      "inputs": [
        {
          "internalType": "bytes16",
          "name": "courseId",
          "type": "bytes16"
        },
        {
          "internalType": "bytes32",
          "name": "proof",
          "type": "bytes32"
        }
      ],
      "name": "purchaseCourse",
      "outputs": [
        {
          "internalType": "bytes32",
          "name": "",
          "type": "bytes32"
        }
      ],
      "stateMutability": "payable",
      "type": "function",
      "payable": true
    },
    {
      "inputs": [
        {
          "internalType": "bytes32",
          "name": "courseHash",
          "type": "bytes32"
        }
      ],
      "name": "repurchaseCourse",
      "outputs": [],
      "stateMutability": "payable",
      "type": "function",
      "payable": true
    },
    {
      "inputs": [
        {
          "internalType": "bytes32",
          "name": "courseHash",
          "type": "bytes32"
        }
      ],
      "name": "activateCourse",
      "outputs": [],
      "stateMutability": "nonpayable",
      "type": "function"
    },
    {
      "inputs": [
        {
          "internalType": "bytes32",
          "name": "courseHash",
          "type": "bytes32"
        }
      ],
      "name": "deactivateCourse",
      "outputs": [],
      "stateMutability": "nonpayable",
      "type": "function"
    },
    {
      "inputs": [
        {
          "internalType": "address",
          "name": "newOwner",
          "type": "address"
        }
      ],
      "name": "transferOwnership",
      "outputs": [],
      "stateMutability": "nonpayable",
      "type": "function"
    },
    {
      "inputs": [],
      "name": "getCourseCount",
      "outputs": [
        {
          "internalType": "uint256",
          "name": "",
          "type": "uint256"
        }
      ],
      "stateMutability": "view",
      "type": "function",
      "constant": true
    },
    {
      "inputs": [
        {
          "internalType": "uint256",
          "name": "index",
          "type": "uint256"
        }
      ],
      "name": "getCourseHashAtIndex",
      "outputs": [
        {
          "internalType": "bytes32",
          "name": "",
          "type": "bytes32"
        }
      ],
      "stateMutability": "view",
      "type": "function",
      "constant": true
    },
    {
      "inputs": [
        {
          "internalType": "bytes32",
          "name": "couseHash",
          "type": "bytes32"
        }
      ],
      "name": "getCourseByHash",
      "outputs": [
        {
          "components": [
            {
              "internalType": "uint256",
              "name": "id",
              "type": "uint256"
            },
            {
              "internalType": "uint256",
              "name": "price",
              "type": "uint256"
            },
            {
              "internalType": "bytes32",
              "name": "proof",
              "type": "bytes32"
            },
            {
              "internalType": "address",
              "name": "owner",
              "type": "address"
            },
            {
              "internalType": "enum CourseMarketPlace.State",
              "name": "state",
              "type": "uint8"
            }
          ],
          "internalType": "struct CourseMarketPlace.Course",
          "name": "",
          "type": "tuple"
        }
      ],
      "stateMutability": "view",
      "type": "function",
      "constant": true
    },
    {
      "inputs": [],
      "name": "getContractOwner",
      "outputs": [
        {
          "internalType": "address",
          "name": "",
          "type": "address"
        }
      ],
      "stateMutability": "view",
      "type": "function",
      "constant": true
    }
  ],
  "bytecode": "0x608060405260008060006101000a81548160ff02191690831515021790555034801561002a57600080fd5b5061003a3361003f60201b60201c565b610083565b80600460006101000a81548173ffffffffffffffffffffffffffffffffffffffff021916908373ffffffffffffffffffffffffffffffffffffffff16021790555050565b6117f4806100926000396000f3fe6080604052600436106100ec5760003560e01c80636d11290b1161008a578063c4bc5da511610059578063c4bc5da5146102b8578063d76821cb146102cf578063db2e21bc146102ff578063f2fde38b14610316576100f3565b80636d11290b14610210578063935d7e6d1461024d57806396cfda06146102765780639cb8a26a146102a1576100f3565b80633f683b6a116100c65780633f683b6a14610161578063442890d51461018c5780636136e1eb146101b757806362e4e6ac146101d3576100f3565b806312253a6c146100f85780632e1a7d4d1461010f5780633926257214610138576100f3565b366100f357005b600080fd5b34801561010457600080fd5b5061010d61033f565b005b34801561011b57600080fd5b50610136600480360381019061013191906111f4565b6103c7565b005b34801561014457600080fd5b5061015f600480360381019061015a9190611257565b610505565b005b34801561016d57600080fd5b5061017661067f565b604051610183919061129f565b60405180910390f35b34801561019857600080fd5b506101a1610690565b6040516101ae91906112fb565b60405180910390f35b6101d160048036038101906101cc9190611257565b6106ba565b005b3480156101df57600080fd5b506101fa60048036038101906101f59190611257565b61080f565b6040516102079190611422565b60405180910390f35b34801561021c57600080fd5b50610237600480360381019061023291906111f4565b6108eb565b604051610244919061144c565b60405180910390f35b34801561025957600080fd5b50610274600480360381019061026f9190611257565b610908565b005b34801561028257600080fd5b5061028b610b61565b6040516102989190611476565b60405180910390f35b3480156102ad57600080fd5b506102b6610b6b565b005b3480156102c457600080fd5b506102cd610c29565b005b6102e960048036038101906102e491906114e9565b610cb1565b6040516102f6919061144c565b60405180910390f35b34801561030b57600080fd5b50610314610e72565b005b34801561032257600080fd5b5061033d60048036038101906103389190611555565b610fc6565b005b610347610690565b73ffffffffffffffffffffffffffffffffffffffff163373ffffffffffffffffffffffffffffffffffffffff16146103ab576040517f5fc483c500000000000000000000000000000000000000000000000000000000815260040160405180910390fd5b60016000806101000a81548160ff021916908315150217905550565b6103cf610690565b73ffffffffffffffffffffffffffffffffffffffff163373ffffffffffffffffffffffffffffffffffffffff1614610433576040517f5fc483c500000000000000000000000000000000000000000000000000000000815260040160405180910390fd5b6000600460009054906101000a900473ffffffffffffffffffffffffffffffffffffffff1673ffffffffffffffffffffffffffffffffffffffff168260405161047b906115b3565b60006040518083038185875af1925050503d80600081146104b8576040519150601f19603f3d011682016040523d82523d6000602084013e6104bd565b606091505b5050905080610501576040517f08c379a00000000000000000000000000000000000000000000000000000000081526004016104f890611625565b60405180910390fd5b5050565b60008054906101000a900460ff161561051d57600080fd5b610525610690565b73ffffffffffffffffffffffffffffffffffffffff163373ffffffffffffffffffffffffffffffffffffffff1614610589576040517f5fc483c500000000000000000000000000000000000000000000000000000000815260040160405180910390fd5b6105928161103e565b6105c8576040517f4db0c48300000000000000000000000000000000000000000000000000000000815260040160405180910390fd5b6000600160008381526020019081526020016000209050600060028111156105f3576105f2611343565b5b8160030160149054906101000a900460ff16600281111561061757610616611343565b5b1461064e576040517fbaf3f0f700000000000000000000000000000000000000000000000000000000815260040160405180910390fd5b60018160030160146101000a81548160ff0219169083600281111561067657610675611343565b5b02179055505050565b60008054906101000a900460ff1681565b6000600460009054906101000a900473ffffffffffffffffffffffffffffffffffffffff16905090565b60008054906101000a900460ff16156106d257600080fd5b6106db8161103e565b610711576040517f4db0c48300000000000000000000000000000000000000000000000000000000815260040160405180910390fd5b61071a816110ad565b610750576040517fcce31cc400000000000000000000000000000000000000000000000000000000815260040160405180910390fd5b600060016000838152602001908152602001600020905060028081111561077a57610779611343565b5b8160030160149054906101000a900460ff16600281111561079e5761079d611343565b5b146107d5576040517fbaf3f0f700000000000000000000000000000000000000000000000000000000815260040160405180910390fd5b60008160030160146101000a81548160ff021916908360028111156107fd576107fc611343565b5b02179055503481600101819055505050565b61081761115f565b600160008381526020019081526020016000206040518060a00160405290816000820154815260200160018201548152602001600282015481526020016003820160009054906101000a900473ffffffffffffffffffffffffffffffffffffffff1673ffffffffffffffffffffffffffffffffffffffff1673ffffffffffffffffffffffffffffffffffffffff1681526020016003820160149054906101000a900460ff1660028111156108ce576108cd611343565b5b60028111156108e0576108df611343565b5b815250509050919050565b600060026000838152602001908152602001600020549050919050565b60008054906101000a900460ff161561092057600080fd5b610928610690565b73ffffffffffffffffffffffffffffffffffffffff163373ffffffffffffffffffffffffffffffffffffffff161461098c576040517f5fc483c500000000000000000000000000000000000000000000000000000000815260040160405180910390fd5b6109958161103e565b6109cb576040517f4db0c48300000000000000000000000000000000000000000000000000000000815260040160405180910390fd5b6000600160008381526020019081526020016000209050600060028111156109f6576109f5611343565b5b8160030160149054906101000a900460ff166002811115610a1a57610a19611343565b5b14610a51576040517fbaf3f0f700000000000000000000000000000000000000000000000000000000815260040160405180910390fd5b60008160030160009054906101000a900473ffffffffffffffffffffffffffffffffffffffff1673ffffffffffffffffffffffffffffffffffffffff168260010154604051610a9f906115b3565b60006040518083038185875af1925050503d8060008114610adc576040519150601f19603f3d011682016040523d82523d6000602084013e610ae1565b606091505b5050905080610b25576040517f08c379a0000000000000000000000000000000000000000000000000000000008152600401610b1c90611691565b60405180910390fd5b60028260030160146101000a81548160ff02191690836002811115610b4d57610b4c611343565b5b021790555060008260010181905550505050565b6000600354905090565b60008054906101000a900460ff16610b8257600080fd5b610b8a610690565b73ffffffffffffffffffffffffffffffffffffffff163373ffffffffffffffffffffffffffffffffffffffff1614610bee576040517f5fc483c500000000000000000000000000000000000000000000000000000000815260040160405180910390fd5b600460009054906101000a900473ffffffffffffffffffffffffffffffffffffffff1673ffffffffffffffffffffffffffffffffffffffff16ff5b610c31610690565b73ffffffffffffffffffffffffffffffffffffffff163373ffffffffffffffffffffffffffffffffffffffff1614610c95576040517f5fc483c500000000000000000000000000000000000000000000000000000000815260040160405180910390fd5b60008060006101000a81548160ff021916908315150217905550565b60008060009054906101000a900460ff1615610ccc57600080fd5b60008333604051602001610ce192919061171a565b604051602081830303815290604052805190602001209050610d02816110ad565b15610d39576040517fb0fc2d9700000000000000000000000000000000000000000000000000000000815260040160405180910390fd5b600060036000815480929190610d4e90611775565b9190505590508160026000838152602001908152602001600020819055506040518060a001604052808281526020013481526020018581526020013373ffffffffffffffffffffffffffffffffffffffff16815260200160006002811115610db957610db8611343565b5b8152506001600084815260200190815260200160002060008201518160000155602082015181600101556040820151816002015560608201518160030160006101000a81548173ffffffffffffffffffffffffffffffffffffffff021916908373ffffffffffffffffffffffffffffffffffffffff16021790555060808201518160030160146101000a81548160ff02191690836002811115610e5f57610e5e611343565b5b0217905550905050819250505092915050565b60008054906101000a900460ff16610e8957600080fd5b610e91610690565b73ffffffffffffffffffffffffffffffffffffffff163373ffffffffffffffffffffffffffffffffffffffff1614610ef5576040517f5fc483c500000000000000000000000000000000000000000000000000000000815260040160405180910390fd5b6000600460009054906101000a900473ffffffffffffffffffffffffffffffffffffffff1673ffffffffffffffffffffffffffffffffffffffff1647604051610f3d906115b3565b60006040518083038185875af1925050503d8060008114610f7a576040519150601f19603f3d011682016040523d82523d6000602084013e610f7f565b606091505b5050905080610fc3576040517f08c379a0000000000000000000000000000000000000000000000000000000008152600401610fba90611625565b60405180910390fd5b50565b610fce610690565b73ffffffffffffffffffffffffffffffffffffffff163373ffffffffffffffffffffffffffffffffffffffff1614611032576040517f5fc483c500000000000000000000000000000000000000000000000000000000815260040160405180910390fd5b61103b8161111b565b50565b60008073ffffffffffffffffffffffffffffffffffffffff166001600084815260200190815260200160002060030160009054906101000a900473ffffffffffffffffffffffffffffffffffffffff1673ffffffffffffffffffffffffffffffffffffffff1614159050919050565b60003373ffffffffffffffffffffffffffffffffffffffff166001600084815260200190815260200160002060030160009054906101000a900473ffffffffffffffffffffffffffffffffffffffff1673ffffffffffffffffffffffffffffffffffffffff16149050919050565b80600460006101000a81548173ffffffffffffffffffffffffffffffffffffffff021916908373ffffffffffffffffffffffffffffffffffffffff16021790555050565b6040518060a00160405280600081526020016000815260200160008019168152602001600073ffffffffffffffffffffffffffffffffffffffff168152602001600060028111156111b3576111b2611343565b5b81525090565b600080fd5b6000819050919050565b6111d1816111be565b81146111dc57600080fd5b50565b6000813590506111ee816111c8565b92915050565b60006020828403121561120a576112096111b9565b5b6000611218848285016111df565b91505092915050565b6000819050919050565b61123481611221565b811461123f57600080fd5b50565b6000813590506112518161122b565b92915050565b60006020828403121561126d5761126c6111b9565b5b600061127b84828501611242565b91505092915050565b60008115159050919050565b61129981611284565b82525050565b60006020820190506112b46000830184611290565b92915050565b600073ffffffffffffffffffffffffffffffffffffffff82169050919050565b60006112e5826112ba565b9050919050565b6112f5816112da565b82525050565b600060208201905061131060008301846112ec565b92915050565b61131f816111be565b82525050565b61132e81611221565b82525050565b61133d816112da565b82525050565b7f4e487b7100000000000000000000000000000000000000000000000000000000600052602160045260246000fd5b6003811061138357611382611343565b5b50565b600081905061139482611372565b919050565b60006113a482611386565b9050919050565b6113b481611399565b82525050565b60a0820160008201516113d06000850182611316565b5060208201516113e36020850182611316565b5060408201516113f66040850182611325565b5060608201516114096060850182611334565b50608082015161141c60808501826113ab565b50505050565b600060a08201905061143760008301846113ba565b92915050565b61144681611221565b82525050565b6000602082019050611461600083018461143d565b92915050565b611470816111be565b82525050565b600060208201905061148b6000830184611467565b92915050565b60007fffffffffffffffffffffffffffffffff0000000000000000000000000000000082169050919050565b6114c681611491565b81146114d157600080fd5b50565b6000813590506114e3816114bd565b92915050565b60008060408385031215611500576114ff6111b9565b5b600061150e858286016114d4565b925050602061151f85828601611242565b9150509250929050565b611532816112da565b811461153d57600080fd5b50565b60008135905061154f81611529565b92915050565b60006020828403121561156b5761156a6111b9565b5b600061157984828501611540565b91505092915050565b600081905092915050565b50565b600061159d600083611582565b91506115a88261158d565b600082019050919050565b60006115be82611590565b9150819050919050565b600082825260208201905092915050565b7f5472616e73666572206661696c65640000000000000000000000000000000000600082015250565b600061160f600f836115c8565b915061161a826115d9565b602082019050919050565b6000602082019050818103600083015261163e81611602565b9050919050565b7f5472616e73666572206661696c65642100000000000000000000000000000000600082015250565b600061167b6010836115c8565b915061168682611645565b602082019050919050565b600060208201905081810360008301526116aa8161166e565b9050919050565b6000819050919050565b6116cc6116c782611491565b6116b1565b82525050565b60008160601b9050919050565b60006116ea826116d2565b9050919050565b60006116fc826116df565b9050919050565b61171461170f826112da565b6116f1565b82525050565b600061172682856116bb565b6010820191506117368284611703565b6014820191508190509392505050565b7f4e487b7100000000000000000000000000000000000000000000000000000000600052601160045260246000fd5b6000611780826111be565b91507fffffffffffffffffffffffffffffffffffffffffffffffffffffffffffffffff8214156117b3576117b2611746565b5b60018201905091905056fea264697066735822122017ba17b716c745c62f218c9b7ba28c4da668511012a649723a17645dc7d0d9aa64736f6c634300080c0033",
  "immutableReferences": {},
  "source": "// SPDX-License-Identifier: MIT\npragma solidity >=0.4.22 <0.9.0;\n\ncontract CourseMarketPlace {\n    enum State {\n        PURCHASED,\n        ACTIVATED,\n        DEACTIVATED\n    }\n    struct Course {\n        uint id; // 32 Bytes\n        uint price; // 32 Bytes\n        bytes32 proof; // 32 Bytes\n        address owner; // 20 Bytes\n        State state; // 1 Byte\n    }\n\n    bool public isStopped = false;\n    \n// mapping of courseHast to Course data\n    mapping(bytes32 => Course) private ownedCourses;\n\n// mapping of courseId to course hash \n    mapping(uint => bytes32) private ownedCourseHash;\n\n// numer of all courses + id of the course\n    uint private totalOwnedCourses;\n\n// owner the contract (as admin)\n    address payable private owner;\n\n    constructor(){\n        setContractOwner(msg.sender);\n    }\n\n\n    modifier onlyOwner()\n    {\n        if(msg.sender != getContractOwner()){\n            revert OnlyOwner();\n        }\n        _;\n    }\n    modifier onlyWhenNotStopped()\n    {\n       require(!isStopped);\n        _;\n    }\n\n    modifier onlyWhenStopped()\n    {\n       require(isStopped);\n        _;\n    }\n\n    // this func is for reciving payments\n    receive() external payable{}\n\n\n// errors\n    /// This course has already a Owner!\n    error CourseHasOwner();\n\n    /// Sender is not a course owner\n    error SenderIsNotCourseOwner();\n\n    /// Only owner has access!\n    error OnlyOwner();\n\n    // Course has invalid State!\n    error InvalidState();\n\n    // Course is not created!!\n    error CourseIsNotCreated();\n\n    function withdraw(uint amount)\n    external\n    onlyOwner\n    {\n       (bool success,) = owner.call{value: amount}(\"\");\n       require(success, \"Transfer failed\");\n    }\n    function emergencyWithdraw()\n    external\n    onlyWhenStopped\n    onlyOwner\n    {\n       (bool success,) = owner.call{value: address(this).balance}(\"\");\n       require(success, \"Transfer failed\");\n    }\n\n    function selfDestruct()\n    external\n    onlyWhenStopped\n    onlyOwner\n    {\n        selfdestruct(owner);\n    }\n\n    function stopContract()\n    external\n    onlyOwner\n    {\n        isStopped = true;\n    }\n\n    function resumeContract()\n    external\n    onlyOwner\n    {\n        isStopped = false;\n    }\n\n//  course id - 10 --> this is the course ID\n// 0x00000000000000000000000000003130 -> this is the course ID in hex\n// 0x0000000000000000000000000000313000000000000000000000000000003130 --> fake proof\n// 0x5B38Da6a701c568545dCfcB03FcB875f56beddC4 --> this is an user account (for this example is from remix)\n// 000000000000000000000000000031305B38Da6a701c568545dCfcB03FcB875f56beddC4 -> [courseId_HEX][USER_ACCOUNT]\n// keccak256 c4eaa3558504e2baa2669001b43f359b8418b44a4477ff417b4b007d7cc86e37 -> [courseId_HEX][USER_ACCOUNT] hashed in keccak256\n       //--> c4eaa3558504e2baa2669001b43f359b8418b44a4477ff417b4b007d7cc86e37  --> The contract generate the same hash\n    function purchaseCourse(bytes16 courseId, bytes32 proof)\n    external \n    payable \n    onlyWhenNotStopped\n    returns(bytes32)\n    {\n        bytes32 courseHash = keccak256(abi.encodePacked(courseId, msg.sender));\n        if(hasCourseOwnership(courseHash)){\n            revert CourseHasOwner();\n        }\n        uint id = totalOwnedCourses++;\n        ownedCourseHash[id] = courseHash;\n        ownedCourses[courseHash] = Course({\n            id: id,\n            owner: msg.sender,\n            price: msg.value,\n            proof: proof,\n            state: State.PURCHASED\n        });\n        return courseHash;\n    }\n\n    function repurchaseCourse(bytes32 courseHash)\n    external\n    payable\n    onlyWhenNotStopped\n    {\n        if (!isCourseCreated(courseHash)) {\n           revert CourseIsNotCreated();\n        }\n        if(!hasCourseOwnership(courseHash)){\n            revert SenderIsNotCourseOwner();\n        }\n\n        Course storage course = ownedCourses[courseHash];\n\n        if(course.state != State.DEACTIVATED){\n            revert InvalidState();\n        }\n        course.state = State.PURCHASED;\n        course.price = msg.value;\n    }\n\n    function activateCourse(bytes32 courseHash)\n    external\n    onlyWhenNotStopped\n    onlyOwner\n  {\n    if (!isCourseCreated(courseHash)) {\n      revert CourseIsNotCreated();\n    }\n\n    Course storage course = ownedCourses[courseHash];\n\n    if (course.state != State.PURCHASED) {\n      revert InvalidState();\n    }\n\n    course.state = State.ACTIVATED;\n  }\n\n  function deactivateCourse(bytes32 courseHash)\n    external\n    onlyWhenNotStopped\n    onlyOwner\n  {\n    if (!isCourseCreated(courseHash)) {\n      revert CourseIsNotCreated();\n    }\n\n    Course storage course = ownedCourses[courseHash];\n\n    if (course.state != State.PURCHASED) {\n      revert InvalidState();\n    }\n\n    (bool success, ) = course.owner.call{value: course.price}(\"\");\n\n    require(success, \"Transfer failed!\");\n    course.state = State.DEACTIVATED;\n    course.price = 0;\n  }\n\n\n    function transferOwnership(address newOwner)\n     external\n     onlyOwner\n    {\n        setContractOwner(newOwner);\n    }\n\n    function getCourseCount()\n    external\n    view\n    returns (uint)\n    {\n        return totalOwnedCourses;\n    }\n\n    function getCourseHashAtIndex(uint index)\n    external\n    view\n    returns (bytes32)\n    {\n        return ownedCourseHash[index];\n    }\n    function getCourseByHash(bytes32 couseHash)\n    external\n    view\n    returns (Course memory)\n    {\n        return ownedCourses[couseHash];\n    }\n\n    function getContractOwner()\n    public\n    view\n    returns (address)\n    {\n        return owner;\n    }\n\n    function setContractOwner(address newOwner) \n     private\n    {\n        owner = payable(newOwner);\n\n    }\n\n    function isCourseCreated(bytes32 courseHash)\n    private\n    view\n    returns (bool)\n    {\n        return ownedCourses[courseHash].owner != 0x0000000000000000000000000000000000000000;\n    }\n\n\n    function hasCourseOwnership(bytes32 courseHash)\n    private\n    view\n    returns (bool)\n    {\n        return ownedCourses[courseHash].owner == msg.sender;\n    }\n\n\n\n}",
  "sourcePath": "/Users/cristianronda/Documents/CR/marketplace-eth/contracts/CourseMarketPlace.sol",
  "compiler": {
    "name": "solc",
    "version": "0.8.12+commit.f00d7308.Emscripten.clang"
  },
  "schemaVersion": "3.4.6",
  "updatedAt": "2022-08-27T20:25:27.639Z",
  "networkType": "ethereum",
  "devdoc": {
    "kind": "dev",
    "methods": {},
    "version": 1
  },
  "userdoc": {
    "errors": {
      "CourseHasOwner()": [
        {
          "notice": "This course has already a Owner!"
        }
      ],
      "OnlyOwner()": [
        {
          "notice": "Only owner has access!"
        }
      ],
      "SenderIsNotCourseOwner()": [
        {
          "notice": "Sender is not a course owner"
        }
      ]
    },
    "kind": "user",
    "methods": {},
    "version": 1
  }
}