{
  "contractName": "CourseMarketPlace",
  "abi": [
    {
      "inputs": [],
      "stateMutability": "nonpayable",
      "type": "constructor"
    },
    {
      "inputs": [],
      "name": "CourseHasOwner",
      "type": "error"
    },
    {
      "inputs": [],
      "name": "CourseIsNotCreated",
      "type": "error"
    },
    {
      "inputs": [],
      "name": "InvalidState",
      "type": "error"
    },
    {
      "inputs": [],
      "name": "OnlyOwner",
      "type": "error"
    },
    {
      "inputs": [
        {
          "internalType": "bytes16",
          "name": "courseId",
          "type": "bytes16"
        },
        {
          "internalType": "bytes32",
          "name": "proof",
          "type": "bytes32"
        }
      ],
      "name": "purchaseCourse",
      "outputs": [
        {
          "internalType": "bytes32",
          "name": "",
          "type": "bytes32"
        }
      ],
      "stateMutability": "payable",
      "type": "function",
      "payable": true
    },
    {
      "inputs": [
        {
          "internalType": "bytes32",
          "name": "courseHash",
          "type": "bytes32"
        }
      ],
      "name": "activateCourse",
      "outputs": [],
      "stateMutability": "nonpayable",
      "type": "function"
    },
    {
      "inputs": [
        {
          "internalType": "bytes32",
          "name": "courseHash",
          "type": "bytes32"
        }
      ],
      "name": "deactivateCourse",
      "outputs": [],
      "stateMutability": "nonpayable",
      "type": "function"
    },
    {
      "inputs": [
        {
          "internalType": "address",
          "name": "newOwner",
          "type": "address"
        }
      ],
      "name": "transferOwnership",
      "outputs": [],
      "stateMutability": "nonpayable",
      "type": "function"
    },
    {
      "inputs": [],
      "name": "getCourseCount",
      "outputs": [
        {
          "internalType": "uint256",
          "name": "",
          "type": "uint256"
        }
      ],
      "stateMutability": "view",
      "type": "function",
      "constant": true
    },
    {
      "inputs": [
        {
          "internalType": "uint256",
          "name": "index",
          "type": "uint256"
        }
      ],
      "name": "getCourseHashAtIndex",
      "outputs": [
        {
          "internalType": "bytes32",
          "name": "",
          "type": "bytes32"
        }
      ],
      "stateMutability": "view",
      "type": "function",
      "constant": true
    },
    {
      "inputs": [
        {
          "internalType": "bytes32",
          "name": "couseHash",
          "type": "bytes32"
        }
      ],
      "name": "getCourseByHash",
      "outputs": [
        {
          "components": [
            {
              "internalType": "uint256",
              "name": "id",
              "type": "uint256"
            },
            {
              "internalType": "uint256",
              "name": "price",
              "type": "uint256"
            },
            {
              "internalType": "bytes32",
              "name": "proof",
              "type": "bytes32"
            },
            {
              "internalType": "address",
              "name": "owner",
              "type": "address"
            },
            {
              "internalType": "enum CourseMarketPlace.State",
              "name": "state",
              "type": "uint8"
            }
          ],
          "internalType": "struct CourseMarketPlace.Course",
          "name": "",
          "type": "tuple"
        }
      ],
      "stateMutability": "view",
      "type": "function",
      "constant": true
    },
    {
      "inputs": [],
      "name": "getContractOwner",
      "outputs": [
        {
          "internalType": "address",
          "name": "",
          "type": "address"
        }
      ],
      "stateMutability": "view",
      "type": "function",
      "constant": true
    }
  ],
  "bytecode": "0x608060405234801561001057600080fd5b506100203361002560201b60201c565b610069565b80600360006101000a81548173ffffffffffffffffffffffffffffffffffffffff021916908373ffffffffffffffffffffffffffffffffffffffff16021790555050565b610ff8806100786000396000f3fe60806040526004361061007b5760003560e01c8063935d7e6d1161004e578063935d7e6d1461014e57806396cfda0614610177578063d76821cb146101a2578063f2fde38b146101d25761007b565b80633926257214610080578063442890d5146100a957806362e4e6ac146100d45780636d11290b14610111575b600080fd5b34801561008c57600080fd5b506100a760048036038101906100a29190610a9a565b6101fb565b005b3480156100b557600080fd5b506100be61035c565b6040516100cb9190610b08565b60405180910390f35b3480156100e057600080fd5b506100fb60048036038101906100f69190610a9a565b610386565b6040516101089190610c39565b60405180910390f35b34801561011d57600080fd5b5061013860048036038101906101339190610c80565b610461565b6040516101459190610cbc565b60405180910390f35b34801561015a57600080fd5b5061017560048036038101906101709190610a9a565b61047e565b005b34801561018357600080fd5b5061018c6106be565b6040516101999190610ce6565b60405180910390f35b6101bc60048036038101906101b79190610d59565b6106c8565b6040516101c99190610cbc565b60405180910390f35b3480156101de57600080fd5b506101f960048036038101906101f49190610dc5565b61086e565b005b61020361035c565b73ffffffffffffffffffffffffffffffffffffffff163373ffffffffffffffffffffffffffffffffffffffff1614610267576040517f5fc483c500000000000000000000000000000000000000000000000000000000815260040160405180910390fd5b610270816108e6565b6102a6576040517f4db0c48300000000000000000000000000000000000000000000000000000000815260040160405180910390fd5b60008060008381526020019081526020016000209050600060028111156102d0576102cf610b5a565b5b8160030160149054906101000a900460ff1660028111156102f4576102f3610b5a565b5b1461032b576040517fbaf3f0f700000000000000000000000000000000000000000000000000000000815260040160405180910390fd5b60018160030160146101000a81548160ff0219169083600281111561035357610352610b5a565b5b02179055505050565b6000600360009054906101000a900473ffffffffffffffffffffffffffffffffffffffff16905090565b61038e610a05565b6000808381526020019081526020016000206040518060a00160405290816000820154815260200160018201548152602001600282015481526020016003820160009054906101000a900473ffffffffffffffffffffffffffffffffffffffff1673ffffffffffffffffffffffffffffffffffffffff1673ffffffffffffffffffffffffffffffffffffffff1681526020016003820160149054906101000a900460ff16600281111561044457610443610b5a565b5b600281111561045657610455610b5a565b5b815250509050919050565b600060016000838152602001908152602001600020549050919050565b61048661035c565b73ffffffffffffffffffffffffffffffffffffffff163373ffffffffffffffffffffffffffffffffffffffff16146104ea576040517f5fc483c500000000000000000000000000000000000000000000000000000000815260040160405180910390fd5b6104f3816108e6565b610529576040517f4db0c48300000000000000000000000000000000000000000000000000000000815260040160405180910390fd5b600080600083815260200190815260200160002090506000600281111561055357610552610b5a565b5b8160030160149054906101000a900460ff16600281111561057757610576610b5a565b5b146105ae576040517fbaf3f0f700000000000000000000000000000000000000000000000000000000815260040160405180910390fd5b60008160030160009054906101000a900473ffffffffffffffffffffffffffffffffffffffff1673ffffffffffffffffffffffffffffffffffffffff1682600101546040516105fc90610e23565b60006040518083038185875af1925050503d8060008114610639576040519150601f19603f3d011682016040523d82523d6000602084013e61063e565b606091505b5050905080610682576040517f08c379a000000000000000000000000000000000000000000000000000000000815260040161067990610e95565b60405180910390fd5b60028260030160146101000a81548160ff021916908360028111156106aa576106a9610b5a565b5b021790555060008260010181905550505050565b6000600254905090565b60008083336040516020016106de929190610f1e565b6040516020818303038152906040528051906020012090506106ff81610954565b15610736576040517fb0fc2d9700000000000000000000000000000000000000000000000000000000815260040160405180910390fd5b60006002600081548092919061074b90610f79565b9190505590508160016000838152602001908152602001600020819055506040518060a001604052808281526020013481526020018581526020013373ffffffffffffffffffffffffffffffffffffffff168152602001600060028111156107b6576107b5610b5a565b5b81525060008084815260200190815260200160002060008201518160000155602082015181600101556040820151816002015560608201518160030160006101000a81548173ffffffffffffffffffffffffffffffffffffffff021916908373ffffffffffffffffffffffffffffffffffffffff16021790555060808201518160030160146101000a81548160ff0219169083600281111561085b5761085a610b5a565b5b0217905550905050819250505092915050565b61087661035c565b73ffffffffffffffffffffffffffffffffffffffff163373ffffffffffffffffffffffffffffffffffffffff16146108da576040517f5fc483c500000000000000000000000000000000000000000000000000000000815260040160405180910390fd5b6108e3816109c1565b50565b60008073ffffffffffffffffffffffffffffffffffffffff1660008084815260200190815260200160002060030160009054906101000a900473ffffffffffffffffffffffffffffffffffffffff1673ffffffffffffffffffffffffffffffffffffffff1614159050919050565b60003373ffffffffffffffffffffffffffffffffffffffff1660008084815260200190815260200160002060030160009054906101000a900473ffffffffffffffffffffffffffffffffffffffff1673ffffffffffffffffffffffffffffffffffffffff16149050919050565b80600360006101000a81548173ffffffffffffffffffffffffffffffffffffffff021916908373ffffffffffffffffffffffffffffffffffffffff16021790555050565b6040518060a00160405280600081526020016000815260200160008019168152602001600073ffffffffffffffffffffffffffffffffffffffff16815260200160006002811115610a5957610a58610b5a565b5b81525090565b600080fd5b6000819050919050565b610a7781610a64565b8114610a8257600080fd5b50565b600081359050610a9481610a6e565b92915050565b600060208284031215610ab057610aaf610a5f565b5b6000610abe84828501610a85565b91505092915050565b600073ffffffffffffffffffffffffffffffffffffffff82169050919050565b6000610af282610ac7565b9050919050565b610b0281610ae7565b82525050565b6000602082019050610b1d6000830184610af9565b92915050565b6000819050919050565b610b3681610b23565b82525050565b610b4581610a64565b82525050565b610b5481610ae7565b82525050565b7f4e487b7100000000000000000000000000000000000000000000000000000000600052602160045260246000fd5b60038110610b9a57610b99610b5a565b5b50565b6000819050610bab82610b89565b919050565b6000610bbb82610b9d565b9050919050565b610bcb81610bb0565b82525050565b60a082016000820151610be76000850182610b2d565b506020820151610bfa6020850182610b2d565b506040820151610c0d6040850182610b3c565b506060820151610c206060850182610b4b565b506080820151610c336080850182610bc2565b50505050565b600060a082019050610c4e6000830184610bd1565b92915050565b610c5d81610b23565b8114610c6857600080fd5b50565b600081359050610c7a81610c54565b92915050565b600060208284031215610c9657610c95610a5f565b5b6000610ca484828501610c6b565b91505092915050565b610cb681610a64565b82525050565b6000602082019050610cd16000830184610cad565b92915050565b610ce081610b23565b82525050565b6000602082019050610cfb6000830184610cd7565b92915050565b60007fffffffffffffffffffffffffffffffff0000000000000000000000000000000082169050919050565b610d3681610d01565b8114610d4157600080fd5b50565b600081359050610d5381610d2d565b92915050565b60008060408385031215610d7057610d6f610a5f565b5b6000610d7e85828601610d44565b9250506020610d8f85828601610a85565b9150509250929050565b610da281610ae7565b8114610dad57600080fd5b50565b600081359050610dbf81610d99565b92915050565b600060208284031215610ddb57610dda610a5f565b5b6000610de984828501610db0565b91505092915050565b600081905092915050565b50565b6000610e0d600083610df2565b9150610e1882610dfd565b600082019050919050565b6000610e2e82610e00565b9150819050919050565b600082825260208201905092915050565b7f5472616e73666572206661696c65642100000000000000000000000000000000600082015250565b6000610e7f601083610e38565b9150610e8a82610e49565b602082019050919050565b60006020820190508181036000830152610eae81610e72565b9050919050565b6000819050919050565b610ed0610ecb82610d01565b610eb5565b82525050565b60008160601b9050919050565b6000610eee82610ed6565b9050919050565b6000610f0082610ee3565b9050919050565b610f18610f1382610ae7565b610ef5565b82525050565b6000610f2a8285610ebf565b601082019150610f3a8284610f07565b6014820191508190509392505050565b7f4e487b7100000000000000000000000000000000000000000000000000000000600052601160045260246000fd5b6000610f8482610b23565b91507fffffffffffffffffffffffffffffffffffffffffffffffffffffffffffffffff821415610fb757610fb6610f4a565b5b60018201905091905056fea2646970667358221220ebdfee8cb477c409ff7fff1352fde58156c33d9b8608490b171925002d9ee1ef64736f6c634300080c0033",
  "immutableReferences": {},
  "source": "// SPDX-License-Identifier: MIT\npragma solidity >=0.4.22 <0.9.0;\n\ncontract CourseMarketPlace {\n    enum State {\n        PURCHASED,\n        ACTIVATED,\n        DEACTIVATED\n    }\n    struct Course {\n        uint id; // 32 Bytes\n        uint price; // 32 Bytes\n        bytes32 proof; // 32 Bytes\n        address owner; // 20 Bytes\n        State state; // 1 Byte\n    }\n\n// mapping of courseHast to Course data\n    mapping(bytes32 => Course) private ownedCourses;\n\n// mapping of courseId to course hash \n    mapping(uint => bytes32) private ownedCourseHash;\n\n// numer of all courses + id of the course\n    uint private totalOwnedCourses;\n\n// owner the contract (as admin)\n    address payable private owner;\n\n    constructor(){\n        setContractOwner(msg.sender);\n    }\n\n\n    modifier onlyOwner()\n    {\n        if(msg.sender != getContractOwner()){\n            revert OnlyOwner();\n        }\n        _;\n    }\n\n// errors\n    /// This course has already a Owner!\n    error CourseHasOwner();\n\n    /// Only owner has access!\n    error OnlyOwner();\n\n    // Course has invalid State!\n    error InvalidState();\n\n    // Course is not created!!\n    error CourseIsNotCreated();\n\n//  course id - 10 --> this is the course ID\n// 0x00000000000000000000000000003130 -> this is the course ID in hex\n// 0x0000000000000000000000000000313000000000000000000000000000003130 --> fake proof\n// 0x5B38Da6a701c568545dCfcB03FcB875f56beddC4 --> this is an user account (for this example is from remix)\n// 000000000000000000000000000031305B38Da6a701c568545dCfcB03FcB875f56beddC4 -> [courseId_HEX][USER_ACCOUNT]\n// keccak256 c4eaa3558504e2baa2669001b43f359b8418b44a4477ff417b4b007d7cc86e37 -> [courseId_HEX][USER_ACCOUNT] hashed in keccak256\n       //--> c4eaa3558504e2baa2669001b43f359b8418b44a4477ff417b4b007d7cc86e37  --> The contract generate the same hash\n    function purchaseCourse(bytes16 courseId, bytes32 proof)\n    external payable returns(bytes32)\n    {\n        bytes32 courseHash = keccak256(abi.encodePacked(courseId, msg.sender));\n        if(hasCourseOwnership(courseHash)){\n            revert CourseHasOwner();\n        }\n        uint id = totalOwnedCourses++;\n        ownedCourseHash[id] = courseHash;\n        ownedCourses[courseHash] = Course({\n            id: id,\n            owner: msg.sender,\n            price: msg.value,\n            proof: proof,\n            state: State.PURCHASED\n        });\n        return courseHash;\n    }\n\n    function activateCourse(bytes32 courseHash)\n    external\n    onlyOwner\n  {\n    if (!isCourseCreated(courseHash)) {\n      revert CourseIsNotCreated();\n    }\n\n    Course storage course = ownedCourses[courseHash];\n\n    if (course.state != State.PURCHASED) {\n      revert InvalidState();\n    }\n\n    course.state = State.ACTIVATED;\n  }\n\n  function deactivateCourse(bytes32 courseHash)\n    external\n    onlyOwner\n  {\n    if (!isCourseCreated(courseHash)) {\n      revert CourseIsNotCreated();\n    }\n\n    Course storage course = ownedCourses[courseHash];\n\n    if (course.state != State.PURCHASED) {\n      revert InvalidState();\n    }\n\n    (bool success, ) = course.owner.call{value: course.price}(\"\");\n\n    require(success, \"Transfer failed!\");\n    course.state = State.DEACTIVATED;\n    course.price = 0;\n  }\n\n\n    function transferOwnership(address newOwner)\n     external\n     onlyOwner\n    {\n        setContractOwner(newOwner);\n    }\n\n    function getCourseCount()\n    external\n    view\n    returns (uint)\n    {\n        return totalOwnedCourses;\n    }\n\n    function getCourseHashAtIndex(uint index)\n    external\n    view\n    returns (bytes32)\n    {\n        return ownedCourseHash[index];\n    }\n    function getCourseByHash(bytes32 couseHash)\n    external\n    view\n    returns (Course memory)\n    {\n        return ownedCourses[couseHash];\n    }\n\n    function getContractOwner()\n    public\n    view\n    returns (address)\n    {\n        return owner;\n    }\n\n    function setContractOwner(address newOwner) \n     private\n    {\n        owner = payable(newOwner);\n\n    }\n\n    function isCourseCreated(bytes32 courseHash)\n    private\n    view\n    returns (bool)\n    {\n        return ownedCourses[courseHash].owner != 0x0000000000000000000000000000000000000000;\n    }\n\n\n    function hasCourseOwnership(bytes32 courseHash)\n    private\n    view\n    returns (bool)\n    {\n        return ownedCourses[courseHash].owner == msg.sender;\n    }\n\n\n\n}",
  "sourcePath": "/Users/cristianronda/Documents/CR/marketplace-eth/contracts/CourseMarketPlace.sol",
  "compiler": {
    "name": "solc",
    "version": "0.8.12+commit.f00d7308.Emscripten.clang"
  },
  "schemaVersion": "3.4.6",
  "updatedAt": "2022-06-07T02:53:46.279Z",
  "networkType": "ethereum",
  "devdoc": {
    "kind": "dev",
    "methods": {},
    "version": 1
  },
  "userdoc": {
    "errors": {
      "CourseHasOwner()": [
        {
          "notice": "This course has already a Owner!"
        }
      ],
      "OnlyOwner()": [
        {
          "notice": "Only owner has access!"
        }
      ]
    },
    "kind": "user",
    "methods": {},
    "version": 1
  }
}